{
  "contractName": "DeedIPFSToken",
  "abi": [
    {
      "inputs": [],
      "payable": false,
      "stateMutability": "nonpayable",
      "type": "constructor"
    },
    {
      "anonymous": false,
      "inputs": [
        {
          "indexed": true,
          "internalType": "address",
          "name": "_owner",
          "type": "address"
        },
        {
          "indexed": true,
          "internalType": "address",
          "name": "_approved",
          "type": "address"
        },
        {
          "indexed": true,
          "internalType": "uint256",
          "name": "_tokenId",
          "type": "uint256"
        }
      ],
      "name": "Approval",
      "type": "event"
    },
    {
      "anonymous": false,
      "inputs": [
        {
          "indexed": true,
          "internalType": "address",
          "name": "_owner",
          "type": "address"
        },
        {
          "indexed": true,
          "internalType": "address",
          "name": "_operator",
          "type": "address"
        },
        {
          "indexed": false,
          "internalType": "bool",
          "name": "_approved",
          "type": "bool"
        }
      ],
      "name": "ApprovalForAll",
      "type": "event"
    },
    {
      "anonymous": false,
      "inputs": [
        {
          "indexed": true,
          "internalType": "address",
          "name": "_from",
          "type": "address"
        },
        {
          "indexed": true,
          "internalType": "address",
          "name": "_to",
          "type": "address"
        },
        {
          "indexed": true,
          "internalType": "uint256",
          "name": "_tokenId",
          "type": "uint256"
        }
      ],
      "name": "Transfer",
      "type": "event"
    },
    {
      "payable": true,
      "stateMutability": "payable",
      "type": "fallback"
    },
    {
      "constant": true,
      "inputs": [
        {
          "internalType": "uint256",
          "name": "",
          "type": "uint256"
        }
      ],
      "name": "allTokens",
      "outputs": [
        {
          "internalType": "string",
          "name": "ipfsHash",
          "type": "string"
        }
      ],
      "payable": false,
      "stateMutability": "view",
      "type": "function"
    },
    {
      "constant": true,
      "inputs": [
        {
          "internalType": "uint256",
          "name": "",
          "type": "uint256"
        }
      ],
      "name": "allValidTokenIds",
      "outputs": [
        {
          "internalType": "uint256",
          "name": "",
          "type": "uint256"
        }
      ],
      "payable": false,
      "stateMutability": "view",
      "type": "function"
    },
    {
      "constant": true,
      "inputs": [],
      "name": "owner",
      "outputs": [
        {
          "internalType": "address payable",
          "name": "",
          "type": "address"
        }
      ],
      "payable": false,
      "stateMutability": "view",
      "type": "function"
    },
    {
      "constant": true,
      "inputs": [
        {
          "internalType": "bytes4",
          "name": "interfaceID",
          "type": "bytes4"
        }
      ],
      "name": "supportsInterface",
      "outputs": [
        {
          "internalType": "bool",
          "name": "",
          "type": "bool"
        }
      ],
      "payable": false,
      "stateMutability": "view",
      "type": "function"
    },
    {
      "constant": true,
      "inputs": [
        {
          "internalType": "address",
          "name": "_owner",
          "type": "address"
        }
      ],
      "name": "balanceOf",
      "outputs": [
        {
          "internalType": "uint256",
          "name": "",
          "type": "uint256"
        }
      ],
      "payable": false,
      "stateMutability": "view",
      "type": "function"
    },
    {
      "constant": true,
      "inputs": [
        {
          "internalType": "uint256",
          "name": "_tokenId",
          "type": "uint256"
        }
      ],
      "name": "ownerOf",
      "outputs": [
        {
          "internalType": "address",
          "name": "",
          "type": "address"
        }
      ],
      "payable": false,
      "stateMutability": "view",
      "type": "function"
    },
    {
      "constant": false,
      "inputs": [
        {
          "internalType": "address",
          "name": "_from",
          "type": "address"
        },
        {
          "internalType": "address",
          "name": "_to",
          "type": "address"
        },
        {
          "internalType": "uint256",
          "name": "_tokenId",
          "type": "uint256"
        }
      ],
      "name": "transferFrom",
      "outputs": [],
      "payable": true,
      "stateMutability": "payable",
      "type": "function"
    },
    {
      "constant": false,
      "inputs": [
        {
          "internalType": "address",
          "name": "_from",
          "type": "address"
        },
        {
          "internalType": "address",
          "name": "_to",
          "type": "address"
        },
        {
          "internalType": "uint256",
          "name": "_tokenId",
          "type": "uint256"
        }
      ],
      "name": "safeTransferFrom",
      "outputs": [],
      "payable": true,
      "stateMutability": "payable",
      "type": "function"
    },
    {
      "constant": false,
      "inputs": [
        {
          "internalType": "address",
          "name": "_from",
          "type": "address"
        },
        {
          "internalType": "address",
          "name": "_to",
          "type": "address"
        },
        {
          "internalType": "uint256",
          "name": "_tokenId",
          "type": "uint256"
        },
        {
          "internalType": "bytes",
          "name": "data",
          "type": "bytes"
        }
      ],
      "name": "safeTransferFrom",
      "outputs": [],
      "payable": true,
      "stateMutability": "payable",
      "type": "function"
    },
    {
      "constant": false,
      "inputs": [
        {
          "internalType": "address",
          "name": "_approved",
          "type": "address"
        },
        {
          "internalType": "uint256",
          "name": "_tokenId",
          "type": "uint256"
        }
      ],
      "name": "approve",
      "outputs": [],
      "payable": true,
      "stateMutability": "payable",
      "type": "function"
    },
    {
      "constant": false,
      "inputs": [
        {
          "internalType": "address",
          "name": "_operator",
          "type": "address"
        },
        {
          "internalType": "bool",
          "name": "_approved",
          "type": "bool"
        }
      ],
      "name": "setApprovalForAll",
      "outputs": [],
      "payable": false,
      "stateMutability": "nonpayable",
      "type": "function"
    },
    {
      "constant": true,
      "inputs": [
        {
          "internalType": "uint256",
          "name": "_tokenId",
          "type": "uint256"
        }
      ],
      "name": "getApproved",
      "outputs": [
        {
          "internalType": "address",
          "name": "",
          "type": "address"
        }
      ],
      "payable": false,
      "stateMutability": "view",
      "type": "function"
    },
    {
      "constant": true,
      "inputs": [
        {
          "internalType": "address",
          "name": "_owner",
          "type": "address"
        },
        {
          "internalType": "address",
          "name": "_operator",
          "type": "address"
        }
      ],
      "name": "isApprovedForAll",
      "outputs": [
        {
          "internalType": "bool",
          "name": "",
          "type": "bool"
        }
      ],
      "payable": false,
      "stateMutability": "view",
      "type": "function"
    },
    {
      "constant": false,
      "inputs": [
        {
          "internalType": "string",
          "name": "ipfsHash",
          "type": "string"
        }
      ],
      "name": "mint",
      "outputs": [],
      "payable": true,
      "stateMutability": "payable",
      "type": "function"
    },
    {
      "constant": false,
      "inputs": [
        {
          "internalType": "uint256",
          "name": "_tokenId",
          "type": "uint256"
        }
      ],
      "name": "burn",
      "outputs": [],
      "payable": false,
      "stateMutability": "nonpayable",
      "type": "function"
    },
    {
      "constant": true,
      "inputs": [],
      "name": "baseTokenURI",
      "outputs": [
        {
          "internalType": "string",
          "name": "",
          "type": "string"
        }
      ],
      "payable": false,
      "stateMutability": "pure",
      "type": "function"
    },
    {
      "constant": true,
      "inputs": [],
      "name": "totalSupply",
      "outputs": [
        {
          "internalType": "uint256",
          "name": "",
          "type": "uint256"
        }
      ],
      "payable": false,
      "stateMutability": "view",
      "type": "function"
    },
    {
      "constant": true,
      "inputs": [
        {
          "internalType": "uint256",
          "name": "index",
          "type": "uint256"
        }
      ],
      "name": "tokenByIndex",
      "outputs": [
        {
          "internalType": "uint256",
          "name": "",
          "type": "uint256"
        }
      ],
      "payable": false,
      "stateMutability": "view",
      "type": "function"
    },
    {
      "constant": true,
      "inputs": [],
      "name": "name",
      "outputs": [
        {
          "internalType": "string",
          "name": "",
          "type": "string"
        }
      ],
      "payable": false,
      "stateMutability": "pure",
      "type": "function"
    },
    {
      "constant": true,
      "inputs": [],
      "name": "symbol",
      "outputs": [
        {
          "internalType": "string",
          "name": "",
          "type": "string"
        }
      ],
      "payable": false,
      "stateMutability": "pure",
      "type": "function"
    },
    {
      "constant": true,
      "inputs": [
        {
          "internalType": "uint256",
          "name": "_tokenId",
          "type": "uint256"
        }
      ],
      "name": "tokenURI",
      "outputs": [
        {
          "internalType": "string",
          "name": "",
          "type": "string"
        }
      ],
      "payable": false,
      "stateMutability": "view",
      "type": "function"
    },
    {
      "constant": false,
      "inputs": [],
      "name": "kill",
      "outputs": [],
      "payable": false,
      "stateMutability": "nonpayable",
      "type": "function"
    }
  ],
  "bytecode": "0x608060405234801561001057600080fd5b50336000806101000a81548173ffffffffffffffffffffffffffffffffffffffff021916908373ffffffffffffffffffffffffffffffffffffffff16021790555060018060006301ffc9a760e01b7bffffffffffffffffffffffffffffffffffffffffffffffffffffffff1916815260200190815260200160002060006101000a81548160ff02191690831515021790555060018060006380ac58cd60e01b7bffffffffffffffffffffffffffffffffffffffffffffffffffffffff1916815260200190815260200160002060006101000a81548160ff0219169083151502179055506001806000635b5e139f60e01b7bffffffffffffffffffffffffffffffffffffffffffffffffffffffff1916815260200190815260200160002060006101000a81548160ff021916908315150217905550612932806101536000396000f3fe6080604052600436106101355760003560e01c80636352211e116100ab578063a22cb4651161006f578063a22cb46514610774578063b88d4fde146107d1578063c87b56dd146108d6578063d547cfb71461098a578063d85d3d2714610a1a578063e985e9c514610a9357610135565b80636352211e1461055e578063700319c5146105d957806370a08231146106285780638da5cb5b1461068d57806395d89b41146106e457610135565b806323b872dd116100fd57806323b872dd1461032d57806341c0e1b51461039b57806342842e0e146103b257806342966c68146104205780634f6ccce71461045b578063634282af146104aa57610135565b806301ffc9a71461013757806306fdde03146101a9578063081812fc14610239578063095ea7b3146102b457806318160ddd14610302575b005b34801561014357600080fd5b5061018f6004803603602081101561015a57600080fd5b8101908080357bffffffffffffffffffffffffffffffffffffffffffffffffffffffff19169060200190929190505050610b1c565b604051808215151515815260200191505060405180910390f35b3480156101b557600080fd5b506101be610b84565b6040518080602001828103825283818151815260200191508051906020019080838360005b838110156101fe5780820151818401526020810190506101e3565b50505050905090810190601f16801561022b5780820380516001836020036101000a031916815260200191505b509250505060405180910390f35b34801561024557600080fd5b506102726004803603602081101561025c57600080fd5b8101908080359060200190929190505050610bc1565b604051808273ffffffffffffffffffffffffffffffffffffffff1673ffffffffffffffffffffffffffffffffffffffff16815260200191505060405180910390f35b610300600480360360408110156102ca57600080fd5b81019080803573ffffffffffffffffffffffffffffffffffffffff16906020019092919080359060200190929190505050610bfe565b005b34801561030e57600080fd5b50610317610df5565b6040518082815260200191505060405180910390f35b6103996004803603606081101561034357600080fd5b81019080803573ffffffffffffffffffffffffffffffffffffffff169060200190929190803573ffffffffffffffffffffffffffffffffffffffff16906020019092919080359060200190929190505050610e02565b005b3480156103a757600080fd5b506103b061133d565b005b61041e600480360360608110156103c857600080fd5b81019080803573ffffffffffffffffffffffffffffffffffffffff169060200190929190803573ffffffffffffffffffffffffffffffffffffffff1690602001909291908035906020019092919050505061141c565b005b34801561042c57600080fd5b506104596004803603602081101561044357600080fd5b810190808035906020019092919050505061143c565b005b34801561046757600080fd5b506104946004803603602081101561047e57600080fd5b810190808035906020019092919050505061170c565b6040518082815260200191505060405180910390f35b3480156104b657600080fd5b506104e3600480360360208110156104cd57600080fd5b8101908080359060200190929190505050611740565b6040518080602001828103825283818151815260200191508051906020019080838360005b83811015610523578082015181840152602081019050610508565b50505050905090810190601f1680156105505780820380516001836020036101000a031916815260200191505b509250505060405180910390f35b34801561056a57600080fd5b506105976004803603602081101561058157600080fd5b81019080803590602001909291905050506117ff565b604051808273ffffffffffffffffffffffffffffffffffffffff1673ffffffffffffffffffffffffffffffffffffffff16815260200191505060405180910390f35b3480156105e557600080fd5b50610612600480360360208110156105fc57600080fd5b81019080803590602001909291905050506118e4565b6040518082815260200191505060405180910390f35b34801561063457600080fd5b506106776004803603602081101561064b57600080fd5b81019080803573ffffffffffffffffffffffffffffffffffffffff169060200190929190505050611905565b6040518082815260200191505060405180910390f35b34801561069957600080fd5b506106a2611987565b604051808273ffffffffffffffffffffffffffffffffffffffff1673ffffffffffffffffffffffffffffffffffffffff16815260200191505060405180910390f35b3480156106f057600080fd5b506106f96119ac565b6040518080602001828103825283818151815260200191508051906020019080838360005b8381101561073957808201518184015260208101905061071e565b50505050905090810190601f1680156107665780820380516001836020036101000a031916815260200191505b509250505060405180910390f35b34801561078057600080fd5b506107cf6004803603604081101561079757600080fd5b81019080803573ffffffffffffffffffffffffffffffffffffffff1690602001909291908035151590602001909291905050506119e9565b005b6108d4600480360360808110156107e757600080fd5b81019080803573ffffffffffffffffffffffffffffffffffffffff169060200190929190803573ffffffffffffffffffffffffffffffffffffffff169060200190929190803590602001909291908035906020019064010000000081111561084e57600080fd5b82018360208201111561086057600080fd5b8035906020019184600183028401116401000000008311171561088257600080fd5b91908080601f016020809104026020016040519081016040528093929190818152602001838380828437600081840152601f19601f820116905080830192505050505050509192919290505050611aea565b005b3480156108e257600080fd5b5061090f600480360360208110156108f957600080fd5b8101908080359060200190929190505050611d36565b6040518080602001828103825283818151815260200191508051906020019080838360005b8381101561094f578082015181840152602081019050610934565b50505050905090810190601f16801561097c5780820380516001836020036101000a031916815260200191505b509250505060405180910390f35b34801561099657600080fd5b5061099f611e7b565b6040518080602001828103825283818151815260200191508051906020019080838360005b838110156109df5780820151818401526020810190506109c4565b50505050905090810190601f168015610a0c5780820380516001836020036101000a031916815260200191505b509250505060405180910390f35b610a9160048036036020811015610a3057600080fd5b8101908080359060200190640100000000811115610a4d57600080fd5b820183602082011115610a5f57600080fd5b80359060200191846001830284011164010000000083111715610a8157600080fd5b9091929391929390505050611eb8565b005b348015610a9f57600080fd5b50610b0260048036036040811015610ab657600080fd5b81019080803573ffffffffffffffffffffffffffffffffffffffff169060200190929190803573ffffffffffffffffffffffffffffffffffffffff169060200190929190505050612148565b604051808215151515815260200191505060405180910390f35b600060016000837bffffffffffffffffffffffffffffffffffffffffffffffffffffffff19167bffffffffffffffffffffffffffffffffffffffffffffffffffffffff1916815260200190815260200160002060009054906101000a900460ff169050919050565b60606040518060400160405280600a81526020017f4950465320544f4b454e00000000000000000000000000000000000000000000815250905090565b60006004600083815260200190815260200160002060009054906101000a900473ffffffffffffffffffffffffffffffffffffffff169050919050565b6000610c09826117ff565b90506000600560008373ffffffffffffffffffffffffffffffffffffffff1673ffffffffffffffffffffffffffffffffffffffff16815260200190815260200160002060003373ffffffffffffffffffffffffffffffffffffffff1673ffffffffffffffffffffffffffffffffffffffff16815260200190815260200160002060009054906101000a900460ff1690503373ffffffffffffffffffffffffffffffffffffffff168273ffffffffffffffffffffffffffffffffffffffff161480610cd05750805b610d42576040517f08c379a00000000000000000000000000000000000000000000000000000000081526004018080602001828103825260158152602001807f4e6f7420617070726f766564206279206f776e6572000000000000000000000081525060200191505060405180910390fd5b836004600085815260200190815260200160002060006101000a81548173ffffffffffffffffffffffffffffffffffffffff021916908373ffffffffffffffffffffffffffffffffffffffff160217905550828473ffffffffffffffffffffffffffffffffffffffff168373ffffffffffffffffffffffffffffffffffffffff167f8c5be1e5ebec7d5bd14f71427d1e84f3dd0314c0f7b2291e5b200ac8c7c3b92560405160405180910390a450505050565b6000600880549050905090565b6000610e0d826117ff565b90508373ffffffffffffffffffffffffffffffffffffffff168173ffffffffffffffffffffffffffffffffffffffff1614610e93576040517f08c379a00000000000000000000000000000000000000000000000000000000081526004018080602001828103825260238152602001806128676023913960400191505060405180910390fd5b600073ffffffffffffffffffffffffffffffffffffffff168373ffffffffffffffffffffffffffffffffffffffff161415610f36576040517f08c379a00000000000000000000000000000000000000000000000000000000081526004018080602001828103825260188152602001807f5472616e73666572205f746f206164647265737320307830000000000000000081525060200191505060405180910390fd5b60006004600084815260200190815260200160002060009054906101000a900473ffffffffffffffffffffffffffffffffffffffff1690506000600560008473ffffffffffffffffffffffffffffffffffffffff1673ffffffffffffffffffffffffffffffffffffffff16815260200190815260200160002060003373ffffffffffffffffffffffffffffffffffffffff1673ffffffffffffffffffffffffffffffffffffffff16815260200190815260200160002060009054906101000a900460ff1690503373ffffffffffffffffffffffffffffffffffffffff168373ffffffffffffffffffffffffffffffffffffffff16148061106157503373ffffffffffffffffffffffffffffffffffffffff168273ffffffffffffffffffffffffffffffffffffffff16145b806110695750805b6110be576040517f08c379a000000000000000000000000000000000000000000000000000000000815260040180806020018281038252602b81526020018061288a602b913960400191505060405180910390fd5b846002600086815260200190815260200160002060006101000a81548173ffffffffffffffffffffffffffffffffffffffff021916908373ffffffffffffffffffffffffffffffffffffffff1602179055506111636001600360008973ffffffffffffffffffffffffffffffffffffffff1673ffffffffffffffffffffffffffffffffffffffff168152602001908152602001600020546121dc90919063ffffffff16565b600360008873ffffffffffffffffffffffffffffffffffffffff1673ffffffffffffffffffffffffffffffffffffffff168152602001908152602001600020819055506111f96001600360008873ffffffffffffffffffffffffffffffffffffffff1673ffffffffffffffffffffffffffffffffffffffff168152602001908152602001600020546121fc90919063ffffffff16565b600360008773ffffffffffffffffffffffffffffffffffffffff1673ffffffffffffffffffffffffffffffffffffffff16815260200190815260200160002081905550600073ffffffffffffffffffffffffffffffffffffffff166004600086815260200190815260200160002060009054906101000a900473ffffffffffffffffffffffffffffffffffffffff1673ffffffffffffffffffffffffffffffffffffffff16146112da576004600085815260200190815260200160002060006101000a81549073ffffffffffffffffffffffffffffffffffffffff02191690555b838573ffffffffffffffffffffffffffffffffffffffff168773ffffffffffffffffffffffffffffffffffffffff167fddf252ad1be2c89b69c2b068fc378daa952ba7f163c4a11628f55a4df523b3ef60405160405180910390a4505050505050565b6000809054906101000a900473ffffffffffffffffffffffffffffffffffffffff1673ffffffffffffffffffffffffffffffffffffffff163373ffffffffffffffffffffffffffffffffffffffff16146113e2576040517f08c379a00000000000000000000000000000000000000000000000000000000081526004018080602001828103825260228152602001806127e86022913960400191505060405180910390fd5b6000809054906101000a900473ffffffffffffffffffffffffffffffffffffffff1673ffffffffffffffffffffffffffffffffffffffff16ff5b61143783838360405180602001604052806000815250611aea565b505050565b6000611447826117ff565b90503373ffffffffffffffffffffffffffffffffffffffff168173ffffffffffffffffffffffffffffffffffffffff16146114cd576040517f08c379a00000000000000000000000000000000000000000000000000000000081526004018080602001828103825260288152602001806128d66028913960400191505060405180910390fd5b600073ffffffffffffffffffffffffffffffffffffffff166004600084815260200190815260200160002060009054906101000a900473ffffffffffffffffffffffffffffffffffffffff1673ffffffffffffffffffffffffffffffffffffffff161461156b576004600083815260200190815260200160002060006101000a81549073ffffffffffffffffffffffffffffffffffffffff02191690555b60006002600084815260200190815260200160002060006101000a81548173ffffffffffffffffffffffffffffffffffffffff021916908373ffffffffffffffffffffffffffffffffffffffff1602179055506116116001600360003373ffffffffffffffffffffffffffffffffffffffff1673ffffffffffffffffffffffffffffffffffffffff168152602001908152602001600020546121dc90919063ffffffff16565b600360003373ffffffffffffffffffffffffffffffffffffffff1673ffffffffffffffffffffffffffffffffffffffff1681526020019081526020016000208190555061165d8261221b565b600060066000848152602001908152602001600020805460018160011615610100020316600290049050146116ac576006600083815260200190815260200160002060006116ab919061263b565b5b81600073ffffffffffffffffffffffffffffffffffffffff168273ffffffffffffffffffffffffffffffffffffffff167fddf252ad1be2c89b69c2b068fc378daa952ba7f163c4a11628f55a4df523b3ef60405160405180910390a45050565b6000611716610df5565b821061172157600080fd5b6008828154811061172e57fe5b90600052602060002001549050919050565b6007818154811061174d57fe5b90600052602060002001600091509050806000018054600181600116156101000203166002900480601f0160208091040260200160405190810160405280929190818152602001828054600181600116156101000203166002900480156117f55780601f106117ca576101008083540402835291602001916117f5565b820191906000526020600020905b8154815290600101906020018083116117d857829003601f168201915b5050505050905081565b6000806002600084815260200190815260200160002060009054906101000a900473ffffffffffffffffffffffffffffffffffffffff169050600073ffffffffffffffffffffffffffffffffffffffff168173ffffffffffffffffffffffffffffffffffffffff1614156118db576040517f08c379a00000000000000000000000000000000000000000000000000000000081526004018080602001828103825260108152602001807f546f6b656e20697320696e76616c69640000000000000000000000000000000081525060200191505060405180910390fd5b80915050919050565b600881815481106118f157fe5b906000526020600020016000915090505481565b60008073ffffffffffffffffffffffffffffffffffffffff168273ffffffffffffffffffffffffffffffffffffffff16141561194057600080fd5b600360008373ffffffffffffffffffffffffffffffffffffffff1673ffffffffffffffffffffffffffffffffffffffff168152602001908152602001600020549050919050565b6000809054906101000a900473ffffffffffffffffffffffffffffffffffffffff1681565b60606040518060400160405280600381526020017f4950540000000000000000000000000000000000000000000000000000000000815250905090565b80600560003373ffffffffffffffffffffffffffffffffffffffff1673ffffffffffffffffffffffffffffffffffffffff16815260200190815260200160002060008473ffffffffffffffffffffffffffffffffffffffff1673ffffffffffffffffffffffffffffffffffffffff16815260200190815260200160002060006101000a81548160ff0219169083151502179055508173ffffffffffffffffffffffffffffffffffffffff163373ffffffffffffffffffffffffffffffffffffffff167f17307eab39ab6107e8899845ad3d59bd9653f200f220920489ca2b5937696c3183604051808215151515815260200191505060405180910390a35050565b611af5848484610e02565b611b148373ffffffffffffffffffffffffffffffffffffffff166122e6565b15611d305760008373ffffffffffffffffffffffffffffffffffffffff1663150b7a02338786866040518563ffffffff1660e01b8152600401808573ffffffffffffffffffffffffffffffffffffffff1673ffffffffffffffffffffffffffffffffffffffff1681526020018473ffffffffffffffffffffffffffffffffffffffff1673ffffffffffffffffffffffffffffffffffffffff16815260200183815260200180602001828103825283818151815260200191508051906020019080838360005b83811015611bf4578082015181840152602081019050611bd9565b50505050905090810190601f168015611c215780820380516001836020036101000a031916815260200191505b5095505050505050602060405180830381600087803b158015611c4357600080fd5b505af1158015611c57573d6000803e3d6000fd5b505050506040513d6020811015611c6d57600080fd5b81019080805190602001909291905050509050604051808061280a602f9139602f01905060405180910390207bffffffffffffffffffffffffffffffffffffffffffffffffffffffff1916817bffffffffffffffffffffffffffffffffffffffffffffffffffffffff191614611d2e576040517f08c379a00000000000000000000000000000000000000000000000000000000081526004018080602001828103825260218152602001806128b56021913960400191505060405180910390fd5b505b50505050565b606081611d55600960008581526020019081526020016000205461170c565b14611dc8576040517f08c379a00000000000000000000000000000000000000000000000000000000081526004018080602001828103825260148152602001807f54686520746f6b656e20697320696e76616c696400000000000000000000000081525060200191505060405180910390fd5b600660008381526020019081526020016000208054600181600116156101000203166002900480601f016020809104026020016040519081016040528092919081815260200182805460018160011615610100020316600290048015611e6f5780601f10611e4457610100808354040283529160200191611e6f565b820191906000526020600020905b815481529060010190602001808311611e5257829003601f168201915b50505050509050919050565b60606040518060400160405280601d81526020017f68747470733a2f2f676174657761792e697066732e696f2f697066732f000000815250905090565b611ec0612683565b604051806020016040528084848080601f016020809104026020016040519081016040528093929190818152602001838380828437600081840152601f19601f820116905080830192505050505050508152509050600060016007839080600181540180825580915050906001820390600052602060002001600090919290919091506000820151816000019080519060200190611f5f929190612696565b505050039050336002600083815260200190815260200160002060006101000a81548173ffffffffffffffffffffffffffffffffffffffff021916908373ffffffffffffffffffffffffffffffffffffffff16021790555061200a6001600360003373ffffffffffffffffffffffffffffffffffffffff1673ffffffffffffffffffffffffffffffffffffffff168152602001908152602001600020546121fc90919063ffffffff16565b600360003373ffffffffffffffffffffffffffffffffffffffff1673ffffffffffffffffffffffffffffffffffffffff16815260200190815260200160002081905550600880549050600960008381526020019081526020016000208190555060088190806001815401808255809150509060018203906000526020600020016000909192909190915055506120bf6120a1611e7b565b6040518060600160405280602e8152602001612839602e9139612331565b6006600083815260200190815260200160002090805190602001906120e5929190612716565b50803373ffffffffffffffffffffffffffffffffffffffff16600073ffffffffffffffffffffffffffffffffffffffff167fddf252ad1be2c89b69c2b068fc378daa952ba7f163c4a11628f55a4df523b3ef60405160405180910390a450505050565b6000600560008473ffffffffffffffffffffffffffffffffffffffff1673ffffffffffffffffffffffffffffffffffffffff16815260200190815260200160002060008373ffffffffffffffffffffffffffffffffffffffff1673ffffffffffffffffffffffffffffffffffffffff16815260200190815260200160002060009054906101000a900460ff16905092915050565b6000828211156121eb57600080fd5b600082840390508091505092915050565b60008082840190508381101561221157600080fd5b8091505092915050565b600061223660016008805490506121dc90919063ffffffff16565b905060006009600084815260200190815260200160002054905060006008838154811061225f57fe5b90600052602060002001549050806008838154811061227a57fe5b90600052602060002001819055508160096000838152602001908152602001600020819055506122b960016008805490506121dc90919063ffffffff16565b6008816122c69190612796565b506000600960008681526020019081526020016000208190555050505050565b60008060007fc5d2460186f7233c927e7db2dcc703c0e500b653ca82273b7bfad8045d85a47060001b9050833f91506000801b82141580156123285750808214155b92505050919050565b606061236d8383604051806020016040528060008152506040518060200160405280600081525060405180602001604052806000815250612375565b905092915050565b6060808690506060869050606086905060608690506060869050606081518351855187518951010101016040519080825280601f01601f1916602001820160405280156123d15781602001600182028038833980820191505090505b5090506060819050600080905060008090505b8851811015612452578881815181106123f957fe5b602001015160f81c60f81b83838060010194508151811061241657fe5b60200101907effffffffffffffffffffffffffffffffffffffffffffffffffffffffffffff1916908160001a90535080806001019150506123e4565b5060008090505b87518110156124c75787818151811061246e57fe5b602001015160f81c60f81b83838060010194508151811061248b57fe5b60200101907effffffffffffffffffffffffffffffffffffffffffffffffffffffffffffff1916908160001a9053508080600101915050612459565b5060008090505b865181101561253c578681815181106124e357fe5b602001015160f81c60f81b83838060010194508151811061250057fe5b60200101907effffffffffffffffffffffffffffffffffffffffffffffffffffffffffffff1916908160001a90535080806001019150506124ce565b5060008090505b85518110156125b15785818151811061255857fe5b602001015160f81c60f81b83838060010194508151811061257557fe5b60200101907effffffffffffffffffffffffffffffffffffffffffffffffffffffffffffff1916908160001a9053508080600101915050612543565b5060008090505b8451811015612626578481815181106125cd57fe5b602001015160f81c60f81b8383806001019450815181106125ea57fe5b60200101907effffffffffffffffffffffffffffffffffffffffffffffffffffffffffffff1916908160001a90535080806001019150506125b8565b50819850505050505050505095945050505050565b50805460018160011615610100020316600290046000825580601f106126615750612680565b601f01602090049060005260206000209081019061267f91906127c2565b5b50565b6040518060200160405280606081525090565b828054600181600116156101000203166002900490600052602060002090601f016020900481019282601f106126d757805160ff1916838001178555612705565b82800160010185558215612705579182015b828111156127045782518255916020019190600101906126e9565b5b50905061271291906127c2565b5090565b828054600181600116156101000203166002900490600052602060002090601f016020900481019282601f1061275757805160ff1916838001178555612785565b82800160010185558215612785579182015b82811115612784578251825591602001919060010190612769565b5b50905061279291906127c2565b5090565b8154818355818111156127bd578183600052602060002091820191016127bc91906127c2565b5b505050565b6127e491905b808211156127e05760008160009055506001016127c8565b5090565b9056fe4f6e6c79206f776e65722063616e2063616c6c20746869732066756e6374696f6e2e6f6e455243373231526563656976656428616464726573732c616464726573732c75696e743235362c627974657329516d644457333662767232573675613446786e5438624b797358685945556f3751624c54626b475734466f7872385f66726f6d206973204e4f5420746865206f776e6572206f662074686520746f6b656e6d73672e73656e64657220646f6573206e6f742068617665207472616e7366657261626c6520746f6b656e72656365697074206f6620746f6b656e206973204e4f5420636f6d706c657465646d73672e73656e646572206973204e4f5420746865206f776e6572206f662074686520746f6b656ea265627a7a7231582059afaf81279fe28041e0892168ec377aa1eb94ae0e9b7beb1b2bdc19b3ac858064736f6c63430005100032",
  "source": "pragma solidity 0.5.16;\r\n\r\nimport \"./ERC721.sol\";\r\nimport \"./ERC165.sol\";\r\nimport \"./SafeMath.sol\";\r\nimport \"./Address.sol\";\r\nimport \"./Strings.sol\";\r\n\r\ncontract DeedIPFSToken is ERC721, ERC165 {\r\n\r\n    using SafeMath for uint256;\r\n    using Address for address;\r\n\r\n    address payable public owner;\r\n    mapping(bytes4 => bool) supportedInterfaces;\r\n\r\n    mapping(uint256 => address) tokenOwners;\r\n    mapping(address => uint256) balances;\r\n    mapping(uint256 => address) allowance;\r\n    mapping(address => mapping(address => bool)) operators;\r\n\r\n    mapping(uint256 => string) tokenURIs;\r\n\r\n\r\n    struct asset {\r\n        string ipfsHash;\r\n    }\r\n\r\n    asset[] public allTokens;\r\n\r\n    //for enumeration\r\n    uint256[] public allValidTokenIds; //same as allTokens but does't have invalid tokens\r\n    mapping(uint256 => uint256) private allValidTokenIndex;\r\n\r\n\r\n    modifier onlyOwner {\r\n        require(msg.sender == owner, \"Only owner can call this function.\");\r\n        _;\r\n    }\r\n\r\n    constructor() public {\r\n        owner = msg.sender;\r\n        supportedInterfaces[0x01ffc9a7] = true; //ERC165\r\n        supportedInterfaces[0x80ac58cd] = true; //ERC721\r\n        supportedInterfaces[0x5b5e139f] = true; //ERC721Metadata\r\n\r\n    }\r\n\r\n    function supportsInterface(bytes4 interfaceID) external view returns (bool){\r\n        return supportedInterfaces[interfaceID];\r\n    }\r\n\r\n    function balanceOf(address _owner) external view returns (uint256) {\r\n        require(_owner != address(0));\r\n        return balances[_owner];\r\n    }\r\n\r\n    function ownerOf(uint256 _tokenId) public view returns (address) {\r\n\r\n        address addr_owner = tokenOwners[_tokenId];\r\n        require(\r\n            addr_owner != address(0),\r\n            \"Token is invalid\"\r\n        );\r\n        return addr_owner;\r\n    }\r\n\r\n    function transferFrom(address _from, address _to, uint256 _tokenId) public payable {\r\n\r\n        address addr_owner = ownerOf(_tokenId);\r\n\r\n        require(\r\n            addr_owner == _from,\r\n            \"_from is NOT the owner of the token\"\r\n        );\r\n\r\n        require(\r\n            _to != address(0),\r\n            \"Transfer _to address 0x0\"\r\n        );\r\n\r\n        address addr_allowed = allowance[_tokenId];\r\n        bool isOp = operators[addr_owner][msg.sender];\r\n\r\n        require(\r\n            addr_owner == msg.sender || addr_allowed == msg.sender || isOp,\r\n            \"msg.sender does not have transferable token\"\r\n        );\r\n\r\n\r\n        //transfer : change the owner of the token\r\n        tokenOwners[_tokenId] = _to;\r\n        balances[_from] = balances[_from].sub(1);\r\n        balances[_to] = balances[_to].add(1);\r\n\r\n        //reset approved address\r\n        if (allowance[_tokenId] != address(0)) {\r\n            delete allowance[_tokenId];\r\n        }\r\n\r\n        emit Transfer(_from, _to, _tokenId);\r\n\r\n    }\r\n\r\n    function safeTransferFrom(address _from, address _to, uint256 _tokenId, bytes memory data) public payable {\r\n\r\n        transferFrom(_from, _to, _tokenId);\r\n\r\n        //check if _to is CA\r\n        if (_to.isContract()) {\r\n            bytes4 result = ERC721TokenReceiver(_to).onERC721Received(msg.sender, _from, _tokenId, data);\r\n\r\n            require(\r\n                result == bytes4(keccak256(\"onERC721Received(address,address,uint256,bytes)\")),\r\n                \"receipt of token is NOT completed\"\r\n            );\r\n        }\r\n\r\n    }\r\n\r\n    function safeTransferFrom(address _from, address _to, uint256 _tokenId) public payable {\r\n        safeTransferFrom(_from, _to, _tokenId, \"\");\r\n    }\r\n\r\n\r\n    function approve(address _approved, uint256 _tokenId) external payable {\r\n\r\n        address addr_owner = ownerOf(_tokenId);\r\n        bool isOp = operators[addr_owner][msg.sender];\r\n\r\n        require(\r\n            addr_owner == msg.sender || isOp,\r\n            \"Not approved by owner\"\r\n        );\r\n\r\n        allowance[_tokenId] = _approved;\r\n\r\n        emit Approval(addr_owner, _approved, _tokenId);\r\n    }\r\n\r\n    function setApprovalForAll(address _operator, bool _approved) external {\r\n        operators[msg.sender][_operator] = _approved;\r\n        emit ApprovalForAll(msg.sender, _operator, _approved);\r\n    }\r\n\r\n\r\n    function getApproved(uint256 _tokenId) external view returns (address) {\r\n        return allowance[_tokenId];\r\n    }\r\n\r\n    function isApprovedForAll(address _owner, address _operator) external view returns (bool) {\r\n        return operators[_owner][_operator];\r\n    }\r\n\r\n\r\n    //non-ERC721 standard\r\n    //\r\n    //\r\n    function () external payable {}\r\n\r\n    function mint(string calldata ipfsHash) external payable {\r\n\r\n        asset memory newAsset = asset(ipfsHash);\r\n        uint tokenId = allTokens.push(newAsset) - 1;\r\n        //token id starts from 0, index of assets array\r\n        tokenOwners[tokenId] = msg.sender;\r\n        balances[msg.sender] = balances[msg.sender].add(1);\r\n\r\n        //for enumeration\r\n        allValidTokenIndex[tokenId] = allValidTokenIds.length;\r\n        //index starts from 0\r\n        allValidTokenIds.push(tokenId);\r\n\r\n        //Token Metadata\r\n        tokenURIs[tokenId] =  Strings.strConcat(baseTokenURI(), \"QmdDW36bvr2W6ua4FxnT8bKysXhYEUo7QbLTbkGW4Foxr8\");\r\n\r\n        emit Transfer(address(0), msg.sender, tokenId);\r\n    }\r\n\r\n\r\n    function burn(uint _tokenId) external {\r\n\r\n        address addr_owner = ownerOf(_tokenId);\r\n\r\n        require(\r\n            addr_owner == msg.sender,\r\n            \"msg.sender is NOT the owner of the token\"\r\n        );\r\n\r\n        //reset approved address\r\n        if (allowance[_tokenId] != address(0)) {\r\n            delete allowance[_tokenId];\r\n            // tokenId => 0\r\n        }\r\n\r\n        //transfer : change the owner of the token, but address(0)\r\n        tokenOwners[_tokenId] = address(0);\r\n        balances[msg.sender] = balances[msg.sender].sub(1);\r\n\r\n        //for enumeration\r\n        removeInvalidToken(_tokenId);\r\n\r\n        //clear metadata if exists\r\n        if (bytes(tokenURIs[_tokenId]).length != 0) {\r\n            delete tokenURIs[_tokenId];\r\n        }\r\n\r\n        emit Transfer(addr_owner, address(0), _tokenId);\r\n    }\r\n\r\n    function removeInvalidToken(uint256 tokenIdToRemove) private {\r\n\r\n        uint256 lastIndex = allValidTokenIds.length.sub(1);\r\n        uint256 removeIndex = allValidTokenIndex[tokenIdToRemove];\r\n\r\n        uint256 lastTokenId = allValidTokenIds[lastIndex];\r\n\r\n        //swap\r\n        allValidTokenIds[removeIndex] = lastTokenId;\r\n        allValidTokenIndex[lastTokenId] = removeIndex;\r\n\r\n        //delete\r\n        //Arrays have a length member to hold their number of elements.\r\n        //Dynamic arrays can be resized in storage (not in memory) by changing the .length member.\r\n        allValidTokenIds.length = allValidTokenIds.length.sub(1);\r\n        //allValidTokenIndex is private so can't access invalid token by index programmatically\r\n        allValidTokenIndex[tokenIdToRemove] = 0;\r\n    }\r\n\r\n    function baseTokenURI() public pure returns (string memory) {\r\n        return \"https://gateway.ipfs.io/ipfs/\";\r\n    }\r\n\r\n\r\n\r\n\r\n    //ERC721Enumerable\r\n    function totalSupply() public view returns (uint) {\r\n        return allValidTokenIds.length;\r\n    }\r\n\r\n    //ERC721Enumerable\r\n    function tokenByIndex(uint256 index) public view returns (uint256) {\r\n        require(index < totalSupply());\r\n        return allValidTokenIds[index];\r\n    }\r\n\r\n    //ERC721Metadata\r\n    function name() external pure returns (string memory) {\r\n        return \"IPFS TOKEN\";\r\n    }\r\n\r\n    //ERC721Metadata\r\n    function symbol() external pure returns (string memory) {\r\n        return \"IPT\";\r\n    }\r\n\r\n    //ERC721Metadata\r\n    function tokenURI(uint256 _tokenId) external view returns (string memory) {\r\n        require(tokenByIndex(allValidTokenIndex[_tokenId]) == _tokenId, \"The token is invalid\");\r\n        return tokenURIs[_tokenId];\r\n    }\r\n\r\n    function kill() external onlyOwner {\r\n        selfdestruct(owner);\r\n    }\r\n\r\n\r\n}\r\n\r\ncontract ERC721TokenReceiver {\r\n\r\n    function onERC721Received(address _operator, address _from, uint256 _tokenId, bytes memory _data) public returns (bytes4);\r\n}\r\n",
  "sourcePath": "/Applications/projects/drizzle-dapp/contracts/DeedIPFSToken.sol",
  "compiler": {
    "name": "solc",
    "version": "0.5.16+commit.9c3226ce.Emscripten.clang"
  },
  "schemaVersion": "3.4.3",
  "updatedAt": "2021-09-21T14:11:20.619Z",
  "networkType": "ethereum",
  "devdoc": {
    "methods": {}
  },
  "userdoc": {
    "methods": {}
  }
}